:1000000019C033C032C031C030C02FC02EC02DC087
:100010002CC02BC02AC02DC328C027C026C025C095
:1000200024C023C0EFC021C020C01FC01EC01DC0FF
:100030001CC01BC011241FBECFEFD4E0DEBFCDBF5C
:1000400011E0A0E0B1E0E2E6F8E002C005900D9218
:10005000A03DB107D9F724E0A0EDB1E001C01D92A9
:10006000AA3DB207E1F710D3FAC3CACF863068F4CD
:1000700048B121E030E0B90102C0660F771F8A95D0
:10008000E2F7CB01842B88B90895893070F445B12B
:10009000865021E030E0B90102C0660F771F8A95D3
:1000A000E2F7CB01842B85B908958A3008F45F9A72
:1000B0000895863070F448B121E030E0B90102C003
:1000C000660F771F8A95E2F7CB018095842388B964
:1000D0000895893078F445B1865021E030E0B901C7
:1000E00002C0660F771F8A95E2F7CB0180958423C3
:1000F00085B908958A3008F45F98089589E0B6DFDD
:1001000008955F9808955F9B07C0E0E6F0E0808166
:100110008861808388E280830895AC019091D10149
:100120009923E1F3F894E091D80160E4E69FF001AF
:100130001124E652FE4F80818A30B1F50FC0822F24
:100140009091D801F90160E4969FE00DF11D112412
:10015000E652FE4F90819A3039F401C080E0FA01F6
:10016000E80FF11D108211C09091D801F90180E4CF
:10017000989FE00DF11D1124E652FE4F90819D9352
:100180002F5F3F4F20343105D1F68091D10181504E
:100190008093D1018091D801853021F08091D801E0
:1001A0008F5F10C080E00EC0E091D80160E4E69F50
:1001B000F0011124E652FE4F8081DA018D9321E097
:1001C00030E0BDCF8093D801789481E00895FB01A1
:1001D0002081222389F0FC01308123130FC0FB0111
:1001E0003196DC01119603C08D91981309C091914D
:1001F0009111FACF81E0089581E0089580E008959B
:1002000080E008951F920F920FB60F9211242F9342
:100210003F934F935F936F937F938F939F93AF938E
:10022000BF93EF93FF93CF93DF93CDB7DEB72A97BA
:10023000DEBFCDBF9091C6008091D3018823B9F174
:100240002091D2012F3370F4E091D50130E4E39F87
:10025000F0011124E20FF11DE656FC4F90832F5F51
:100260002093D20181508093D3018111C8C0E091C5
:10027000D5018091D20190E4E99FF0011124E80FAB
:10028000F11DE656FC4F10828091D4018F5F809360
:10029000D4018091D501843021F08091D5018F5F08
:1002A00001C080E08093D5011092D201A8C0E091F6
:1002B000D7018091D20120E4E29FF0011124E80FE0
:1002C000F11DE652FE4F908381111AC08091D10139
:1002D000863009F08AC08091D10181508093D1018C
:1002E0008091D801853021F08091D8018F5F01C0C5
:1002F00080E08093D80179C081E08093D20132C040
:100300009A3321F58091D70130E4839FC0011124F5
:1003100060E071E086529E4F5ADF882309F469C07D
:100320008091D70120E4829FC001112481529E4F09
:1003300035D28093D3018093D0014AE0BE016F5F34
:100340007F4F90E051D21092D20159C09A3031F4CF
:100350008091D201882309F452C004C08091D20157
:100360008F33D8F1E091D7018091D20130E4E39F3F
:10037000F0011124E80FF11DE652FE4F1082109299
:10038000D2018091D1018F5F8093D1018091D701FB
:1003900020E4829FC001112466E071E086529E4FE6
:1003A0001AD2892B69F08091D70130E4839FC00174
:1003B00011246CE071E086529E4F0DD2892B09F416
:1003C0009DDE8091D701853021F08091D7018F5F2C
:1003D00001C080E08093D70112C09D3081F09A3037
:1003E00071F08F5F8093D2010AC09E3309F088CFED
:1003F00083CF8091D2018F3308F0B4CFF2CF2A9609
:100400000FB6F894DEBF0FBECDBFDF91CF91FF9145
:10041000EF91BF91AF919F918F917F916F915F917C
:100420004F913F912F910F900FBE0F901F901895F5
:10043000CF93DF93FC012081222369F0DC01119628
:10044000E0ECF0E0C6ECD0E0908195FFFDCF288392
:100450002D912111F9CFDF91CF910895CF93DF93A3
:10046000EC019091D4019923E1F3F894E091D60145
:1004700080E4E89FF0011124E656FC4F80818883D8
:100480008823C1F0DE0111969E01205C3F4F9091C0
:10049000D601FD01EC1BFD0B80E4989FE00DF11DE2
:1004A0001124E656FC4F90819D93992319F0A217D1
:1004B000B30769F78091D40181508093D401809172
:1004C000D601843021F08091D6018F5F01C080E099
:1004D0008093D6017894DF91CF910895BF92CF9207
:1004E000DF92EF92FF920F931F93CF93DF93CDB7DD
:1004F000DEB7C054D1090FB6F894DEBF0FBECDBF32
:10050000FE01E45BFF4FE190CE2EDF2EB12C0C2DCF
:100510001D2DCE01019601DEEE20C9F3FB2CF80162
:10052000BE016F5F7F4F808191810E5F1F4F53D15E
:10053000892B21F0F394FE10F2CFE9CF8F2DC05C10
:10054000DF4F0FB6F894DEBF0FBECDBFDF91CF9166
:100550001F910F91FF90EF90DF90CF90BF90089583
:1005600081E191E09F938F9386E091E09F938F9339
:1005700086E191E09F938F9383E08F93AFDF8DB7F8
:100580009EB707960FB6F8949EBF0FBE8DBF089515
:10059000EF92FF921F93CF93DF93CDB7DEB76097B3
:1005A0000FB6F894DEBF0FBECDBF7C01F8948091EA
:1005B000D7018093D8011092D1017894F7018081FE
:1005C000882349F010E01F5FF701E10FF11D9081D2
:1005D0009111F9CF01C010E089E191E029DF4AE0F3
:1005E000BE016F5F7F4F812F90E0FED0CE0101965C
:1005F0001FDF83E691E01CDF85E291E09F938F93FC
:1006000081E08F936BDFC70113DFAADF0F900F909C
:100610000F9060960FB6F894DEBF0FBECDBFDF918E
:10062000CF911F91FF90EF9008950F931F93CF9359
:100630008C01C0E00EC0F801E20FF31F808180330F
:1006400019F48C2F36DD04C0813311F48C2F0EDDAC
:10065000CF5F2C2F30E0F80101900020E9F73197AF
:10066000E01BF10B2E173F0730F3CF911F910F9135
:1006700008951F920F920FB60F9211241A9A0F909D
:100680000FBE0F901F90189584B7877F84BFE0E658
:10069000F0E0808188618083108282E49FE0909303
:1006A0008900809388008DE080938100C2E0C09330
:1006B0006F0080E890E00FB6F8948093610090930B
:1006C00061000FBE9FE397B997E094B98AB988E9B2
:1006D0008093C10086E08093C2008CE090E090930C
:1006E000C5008093C400789487E291E0A1DE38DFF2
:1006F00080E0BCDC08DD8CE291E09ADE31DF81E055
:10070000B5DC01DD8AE391E093DE86E191E09F9321
:100710008F9386E491E09F938F93CF93DFDE0F90CA
:100720000F900F900F900F90811105C019DF8CE48E
:1007300091E07EDE15DF82E099DCE5DC86E691E083
:1007400077DE0EDF83E092DCDCDC84E791E070DEB4
:1007500007DF84E08BDCD7DC8CE991E066DF8AE59B
:1007600093E07CDE85EA91E013DF8AE593E076DEB4
:100770008DE593E013D08093D90180EC91E008DF00
:100780008AE593E06BDE64EC71E08AE593E01FDDBF
:100790008823B1F385E693E048DFF2CFFC01882798
:1007A0009927E89421912032E9F3293010F02E3076
:1007B000C8F32B3239F02D3231F4689403C01ED0C7
:1007C000820F911D219120532A30C8F31EF4909579
:1007D00081959F4F0895FB01DC018D910190801957
:1007E0000110D9F3990B0895BB274A3031F49923AE
:1007F00022F4BDE2909581959F4F09C07AE0979FC2
:10080000902D879F802D910D11240895BB27FB010A
:100810005527AA27880F991FAA1FA41710F0A41BF9
:1008200083955051B9F7A05DAA3308F0A95DA19353
:10083000009779F7B111B1931192CB0100C0DC019F
:10084000FC01672F71917723E1F7329704C07C9107
:100850006D9370836291AE17BF07C8F30895F89443
:02086000FFCFC8
:100862002B4950442C004552524F52004641494CAC
:100872000053454E44204F4B0041542B43495053A3
:10088200454E443D003E0041540D0A0041542B4365
:10089200574D4F44453D310D0A0041542B43574AB1
:1008A20041503F0D0A004E6F2041500041542B43EE
:1008B200574A41503D2275742D7075626C696322EE
:1008C2002C22220D0A0041542B434950434C4F53D2
:1008D200450D0A0041542B43495053544152543D53
:1008E20022544350222C223137322E31392E3238C3
:1008F2002E3530222C383839300D0A003030303065
:1009020030303030006E616D653D41746D656761F8
:100912003B6C6564733D30303030303030300A002B
:100922004F4B0A00706172616D3B6C6564733D00F0
:00000001FF
