:1000000019C033C032C031C030C02FC02EC02DC087
:100010002CC02BC02AC02DC328C027C026C025C095
:1000200024C023C0EFC021C020C01FC01EC01DC0FF
:100030001CC01BC011241FBECFEFD4E0DEBFCDBF5C
:1000400012E0A0E0B1E0EAE9F8E002C005900D920C
:10005000A830B107D9F724E0A8E0B2E001C01D92B2
:10006000A23DB207E1F710D316C4CACF863068F4B8
:1000700048B121E030E0B90102C0660F771F8A95D0
:10008000E2F7CB01842B88B90895893070F445B12B
:10009000865021E030E0B90102C0660F771F8A95D3
:1000A000E2F7CB01842B85B908958A3008F45F9A72
:1000B0000895863070F448B121E030E0B90102C003
:1000C000660F771F8A95E2F7CB018095842388B964
:1000D0000895893078F445B1865021E030E0B901C7
:1000E00002C0660F771F8A95E2F7CB0180958423C3
:1000F00085B908958A3008F45F98089589E0B6DFDD
:1001000008955F9808955F9B07C0E0E6F0E0808166
:100110008861808388E280830895AC019091090210
:100120009923E1F3F894E091100260E4E69FF00176
:100130001124EE5EFD4F80818A30B1F50FC0822F11
:1001400090911002F90160E4969FE00DF11D1124D9
:10015000EE5EFD4F90819A3039F401C080E0FA01E3
:10016000E80FF11D108211C090911002F90180E496
:10017000989FE00DF11D1124EE5EFD4F90819D933F
:100180002F5F3F4F20343105D1F680910902815015
:100190008093090280911002843021F08091100236
:1001A0008F5F10C080E00EC0E091100260E4E69F17
:1001B000F0011124EE5EFD4F8081DA018D9321E084
:1001C00030E0BDCF80931002789481E00895FB0168
:1001D0002081222389F0FC01308123130FC0FB0111
:1001E0003196DC01119603C08D91981309C091914D
:1001F0009111FACF81E0089581E0089580E008959B
:1002000080E008951F920F920FB60F9211242F9342
:100210003F934F935F936F937F938F939F93AF938E
:10022000BF93EF93FF93CF93DF93CDB7DEB72A97BA
:10023000DEBFCDBF9091C60080910B028823B9F13B
:1002400020910A022F3370F4E0910D0230E4E39F15
:10025000F0011124E20FF11DEE56FC4F90832F5F49
:1002600020930A02815080930B028111C8C0E09153
:100270000D0280910A0290E4E99FF0011124E80F39
:10028000F11DEE56FC4F108280910C028F5F80931F
:100290000C0280910D02843021F080910D028F5F5D
:1002A00001C080E080930D0210920A02A8C0E09184
:1002B0000F0280910A0220E4E29FF0011124E80F6E
:1002C000F11DEE5EFD4F908381111AC080910902ED
:1002D000853009F08AC0809109028150809309021B
:1002E00080911002843021F0809110028F5F01C054
:1002F00080E08093100279C081E080930A0232C0CE
:100300009A3321F580910F0230E4839FC0011124BC
:1003100060E071E08E5E9D4F5ADF882309F469C06A
:1003200080910F0220E4829FC0011124895E9D4FBD
:1003300051D280930B02809308024AE0BE016F5FA6
:100340007F4F90E06DD210920A0259C09A3031F47A
:1003500080910A02882309F452C004C080910A02E5
:100360008F33D8F1E0910F0280910A0230E4E39FCD
:10037000F0011124E80FF11DEE5EFD4F1082109286
:100380000A02809109028F5F8093090280910F0217
:1003900020E4829FC001112466E071E08E5E9D4FD3
:1003A00036D2892B69F080910F0230E4839FC0011F
:1003B00011246CE071E08E5E9D4F29D2892B09F4E7
:1003C0009DDE80910F02843021F080910F028F5FBB
:1003D00001C080E080930F0212C09D3081F09A30FE
:1003E00071F08F5F80930A020AC09E3309F088CFB4
:1003F00083CF80910A028F3308F0B4CFF2CF2A96D0
:100400000FB6F894DEBF0FBECDBFDF91CF91FF9145
:10041000EF91BF91AF919F918F917F916F915F917C
:100420004F913F912F910F900FBE0F901F901895F5
:10043000CF93DF93FC012081222369F0DC01119628
:10044000E0ECF0E0C6ECD0E0908195FFFDCF288392
:100450002D912111F9CFDF91CF910895CF93DF93A3
:10046000EC0190910C029923E1F3F894E0910E02D3
:1004700080E4E89FF0011124EE56FC4F80818883D0
:100480008823C1F0DE0111969E01205C3F4F9091C0
:100490000E02FD01EC1BFD0B80E4989FE00DF11DA9
:1004A0001124EE56FC4F90819D93992319F0A217C9
:1004B000B30769F780910C02815080930C02809100
:1004C0000E02843021F080910E028F5F01C080E027
:1004D00080930E027894DF91CF910895BF92CF92CE
:1004E000DF92EF92FF920F931F93CF93DF93CDB7DD
:1004F000DEB7C054D1090FB6F894DEBF0FBECDBF32
:10050000FE01E45BFF4FE190CE2EDF2EB12C0C2DCF
:100510001D2DCE01019601DEEE20C9F3FB2CF80162
:10052000BE016F5F7F4F808191810E5F1F4F6FD142
:10053000892B21F0F394FE10F2CFE9CF8F2DC05C10
:10054000DF4F0FB6F894DEBF0FBECDBFDF91CF9166
:100550001F910F91FF90EF90DF90CF90BF90089583
:1005600081E191E09F938F9386E091E09F938F9339
:1005700086E191E09F938F9383E08F93AFDF8DB7F8
:100580009EB707960FB6F8949EBF0FBE8DBF089515
:10059000EF92FF921F93CF93DF93CDB7DEB76097B3
:1005A0000FB6F894DEBF0FBECDBF7C01F8948091EA
:1005B0000F0280931002109209027894F701808153
:1005C000882349F010E01F5FF701E10FF11D9081D2
:1005D0009111F9CF01C010E089E191E029DF4AE0F3
:1005E000BE016F5F7F4F812F90E01AD1CE0101963F
:1005F0001FDF83E691E01CDF85E291E09F938F93FC
:1006000081E08F936BDFC70113DFAADF0F900F909C
:100610000F9060960FB6F894DEBF0FBECDBFDF918E
:10062000CF911F91FF90EF9008950F931F93CF9359
:100630008C01C0E00EC0F801E20FF31F808180330F
:1006400019F48C2F36DD04C0813311F48C2F0EDDAC
:10065000CF5F2C2F30E0F80101900020E9F73197AF
:10066000E01BF10B2E173F0730F3CF911F910F9135
:1006700008951F920F920FB60F9211241A9A0F909D
:100680000FBE0F901F90189584B7877F84BFE0E658
:10069000F0E0808188618083108282E49FE0909303
:1006A0008900809388008DE080938100C2E0C09330
:1006B0006F0080E890E00FB6F8948093610090930B
:1006C00061000FBE9FE397B997E094B98AB988E9B2
:1006D0008093C10086E08093C2008CE090E090930C
:1006E000C5008093C400789487E291E0A1DE38DFF2
:1006F00080E0BCDC08DD8CE291E09ADE31DF81E055
:10070000B5DC01DD8AE391E093DE86E191E09F9321
:100710008F9386E491E09F938F93CF93DFDE0F90CA
:100720000F900F900F900F90811105C019DF8CE48E
:1007300091E07EDE15DF82E099DCE5DC86E691E083
:1007400077DE0EDF83E092DCDCDC84E791E070DEB4
:1007500007DF84E08BDCD7DC8CE991E066DF82E5A3
:1007600093E07CDE85EA91E013DF82E593E076DEBC
:1007700085E593E02FD08093110280EC91E008DFB3
:1007800082E593E06BDE64EC71E082E593E01FDDCF
:10079000882321F08DE593E048DFF2CF60ED71E032
:1007A00082E593E014DD882359F36CED71E08DE56B
:1007B00093E02DD0892B51F48CE991E036DF80EC69
:1007C00091E0E6DE81EE91E0E3DEDACF86EF91E0C4
:1007D000DFDED6CFFC0188279927E89421912032CB
:1007E000E9F3293010F02E30C8F32B3239F02D32D6
:1007F00031F4689403C01ED0820F911D21912053C3
:100800002A30C8F31EF4909581959F4F0895FB01FF
:10081000DC018D91019080190110D9F3990B089595
:10082000BB274A3031F4992322F4BDE2909581959B
:100830009F4F09C07AE0979F902D879F802D910D43
:1008400011240895BB27FB015527AA27880F991F5C
:10085000AA1FA41710F0A41B83955051B9F7A05DEF
:10086000AA3308F0A95DA193009779F7B111B1936C
:100870001192CB0100C0DC01FC01672F719177233D
:10088000E1F7329704C07C916D9370836291AE174B
:0A089000BF07C8F30895F894FFCFE6
:10089A002B4950442C004552524F52004641494C74
:1008AA000053454E44204F4B0041542B434950536B
:1008BA00454E443D003E0041540D0A0041542B432D
:1008CA00574D4F44453D310D0A0041542B43574A79
:1008DA0041503F0D0A004E6F2041500041542B43B6
:1008EA00574A41503D2275742D7075626C696322B6
:1008FA002C22220D0A0041542B434950434C4F539A
:10090A00450D0A0041542B43495053544152543D1A
:10091A0022544350222C223137322E31392E32388A
:10092A002E3530222C383839300D0A00303030302C
:10093A0030303030006E616D653D41746D656761C0
:10094A003B6C6564733D30303030303030300A00F3
:10095A004F4B0A00706172616D3B6C6564733D00B8
:10096A0046726F6D5365727665723D004F46460A50
:10097A0000706172616D3B6C6564733D303030307C
:10098A00303030300A00556E6B6E6F776E20436FD1
:08099A006D6D616E640A00003E
:00000001FF
